{
  "address": "0x8594DB3E684E34EcF308b602c25D52199712Cc72",
  "abi": [
    {
      "inputs": [
        {
          "internalType": "address",
          "name": "priceFeedAddress",
          "type": "address"
        },
        {
          "internalType": "string",
          "name": "lowSvg",
          "type": "string"
        },
        {
          "internalType": "string",
          "name": "highSvg",
          "type": "string"
        },
        {
          "internalType": "int256",
          "name": "highValue",
          "type": "int256"
        }
      ],
      "stateMutability": "nonpayable",
      "type": "constructor"
    },
    {
      "anonymous": false,
      "inputs": [
        {
          "indexed": true,
          "internalType": "address",
          "name": "owner",
          "type": "address"
        },
        {
          "indexed": true,
          "internalType": "address",
          "name": "approved",
          "type": "address"
        },
        {
          "indexed": true,
          "internalType": "uint256",
          "name": "tokenId",
          "type": "uint256"
        }
      ],
      "name": "Approval",
      "type": "event"
    },
    {
      "anonymous": false,
      "inputs": [
        {
          "indexed": true,
          "internalType": "address",
          "name": "owner",
          "type": "address"
        },
        {
          "indexed": true,
          "internalType": "address",
          "name": "operator",
          "type": "address"
        },
        {
          "indexed": false,
          "internalType": "bool",
          "name": "approved",
          "type": "bool"
        }
      ],
      "name": "ApprovalForAll",
      "type": "event"
    },
    {
      "anonymous": false,
      "inputs": [
        {
          "indexed": true,
          "internalType": "address",
          "name": "previousOwner",
          "type": "address"
        },
        {
          "indexed": true,
          "internalType": "address",
          "name": "newOwner",
          "type": "address"
        }
      ],
      "name": "OwnershipTransferred",
      "type": "event"
    },
    {
      "anonymous": false,
      "inputs": [
        {
          "indexed": true,
          "internalType": "address",
          "name": "from",
          "type": "address"
        },
        {
          "indexed": true,
          "internalType": "address",
          "name": "to",
          "type": "address"
        },
        {
          "indexed": true,
          "internalType": "uint256",
          "name": "tokenId",
          "type": "uint256"
        }
      ],
      "name": "Transfer",
      "type": "event"
    },
    {
      "inputs": [
        {
          "internalType": "address",
          "name": "to",
          "type": "address"
        },
        {
          "internalType": "uint256",
          "name": "tokenId",
          "type": "uint256"
        }
      ],
      "name": "approve",
      "outputs": [],
      "stateMutability": "nonpayable",
      "type": "function"
    },
    {
      "inputs": [
        {
          "internalType": "address",
          "name": "owner",
          "type": "address"
        }
      ],
      "name": "balanceOf",
      "outputs": [
        {
          "internalType": "uint256",
          "name": "",
          "type": "uint256"
        }
      ],
      "stateMutability": "view",
      "type": "function"
    },
    {
      "inputs": [
        {
          "internalType": "uint256",
          "name": "tokenId",
          "type": "uint256"
        }
      ],
      "name": "getApproved",
      "outputs": [
        {
          "internalType": "address",
          "name": "",
          "type": "address"
        }
      ],
      "stateMutability": "view",
      "type": "function"
    },
    {
      "inputs": [],
      "name": "i_highValue",
      "outputs": [
        {
          "internalType": "int256",
          "name": "",
          "type": "int256"
        }
      ],
      "stateMutability": "view",
      "type": "function"
    },
    {
      "inputs": [],
      "name": "i_priceFeed",
      "outputs": [
        {
          "internalType": "contract AggregatorV3Interface",
          "name": "",
          "type": "address"
        }
      ],
      "stateMutability": "view",
      "type": "function"
    },
    {
      "inputs": [
        {
          "internalType": "address",
          "name": "owner",
          "type": "address"
        },
        {
          "internalType": "address",
          "name": "operator",
          "type": "address"
        }
      ],
      "name": "isApprovedForAll",
      "outputs": [
        {
          "internalType": "bool",
          "name": "",
          "type": "bool"
        }
      ],
      "stateMutability": "view",
      "type": "function"
    },
    {
      "inputs": [],
      "name": "mintNft",
      "outputs": [],
      "stateMutability": "nonpayable",
      "type": "function"
    },
    {
      "inputs": [],
      "name": "name",
      "outputs": [
        {
          "internalType": "string",
          "name": "",
          "type": "string"
        }
      ],
      "stateMutability": "view",
      "type": "function"
    },
    {
      "inputs": [],
      "name": "owner",
      "outputs": [
        {
          "internalType": "address",
          "name": "",
          "type": "address"
        }
      ],
      "stateMutability": "view",
      "type": "function"
    },
    {
      "inputs": [
        {
          "internalType": "uint256",
          "name": "tokenId",
          "type": "uint256"
        }
      ],
      "name": "ownerOf",
      "outputs": [
        {
          "internalType": "address",
          "name": "",
          "type": "address"
        }
      ],
      "stateMutability": "view",
      "type": "function"
    },
    {
      "inputs": [],
      "name": "renounceOwnership",
      "outputs": [],
      "stateMutability": "nonpayable",
      "type": "function"
    },
    {
      "inputs": [],
      "name": "s_highImageURI",
      "outputs": [
        {
          "internalType": "string",
          "name": "",
          "type": "string"
        }
      ],
      "stateMutability": "view",
      "type": "function"
    },
    {
      "inputs": [],
      "name": "s_lowImageURI",
      "outputs": [
        {
          "internalType": "string",
          "name": "",
          "type": "string"
        }
      ],
      "stateMutability": "view",
      "type": "function"
    },
    {
      "inputs": [
        {
          "internalType": "address",
          "name": "from",
          "type": "address"
        },
        {
          "internalType": "address",
          "name": "to",
          "type": "address"
        },
        {
          "internalType": "uint256",
          "name": "tokenId",
          "type": "uint256"
        }
      ],
      "name": "safeTransferFrom",
      "outputs": [],
      "stateMutability": "nonpayable",
      "type": "function"
    },
    {
      "inputs": [
        {
          "internalType": "address",
          "name": "from",
          "type": "address"
        },
        {
          "internalType": "address",
          "name": "to",
          "type": "address"
        },
        {
          "internalType": "uint256",
          "name": "tokenId",
          "type": "uint256"
        },
        {
          "internalType": "bytes",
          "name": "_data",
          "type": "bytes"
        }
      ],
      "name": "safeTransferFrom",
      "outputs": [],
      "stateMutability": "nonpayable",
      "type": "function"
    },
    {
      "inputs": [
        {
          "internalType": "address",
          "name": "operator",
          "type": "address"
        },
        {
          "internalType": "bool",
          "name": "approved",
          "type": "bool"
        }
      ],
      "name": "setApprovalForAll",
      "outputs": [],
      "stateMutability": "nonpayable",
      "type": "function"
    },
    {
      "inputs": [
        {
          "internalType": "bytes4",
          "name": "interfaceId",
          "type": "bytes4"
        }
      ],
      "name": "supportsInterface",
      "outputs": [
        {
          "internalType": "bool",
          "name": "",
          "type": "bool"
        }
      ],
      "stateMutability": "view",
      "type": "function"
    },
    {
      "inputs": [
        {
          "internalType": "string",
          "name": "svg",
          "type": "string"
        }
      ],
      "name": "svgToImageURI",
      "outputs": [
        {
          "internalType": "string",
          "name": "",
          "type": "string"
        }
      ],
      "stateMutability": "pure",
      "type": "function"
    },
    {
      "inputs": [],
      "name": "symbol",
      "outputs": [
        {
          "internalType": "string",
          "name": "",
          "type": "string"
        }
      ],
      "stateMutability": "view",
      "type": "function"
    },
    {
      "inputs": [
        {
          "internalType": "uint256",
          "name": "tokenId",
          "type": "uint256"
        }
      ],
      "name": "tokenURI",
      "outputs": [
        {
          "internalType": "string",
          "name": "",
          "type": "string"
        }
      ],
      "stateMutability": "view",
      "type": "function"
    },
    {
      "inputs": [
        {
          "internalType": "address",
          "name": "from",
          "type": "address"
        },
        {
          "internalType": "address",
          "name": "to",
          "type": "address"
        },
        {
          "internalType": "uint256",
          "name": "tokenId",
          "type": "uint256"
        }
      ],
      "name": "transferFrom",
      "outputs": [],
      "stateMutability": "nonpayable",
      "type": "function"
    },
    {
      "inputs": [
        {
          "internalType": "address",
          "name": "newOwner",
          "type": "address"
        }
      ],
      "name": "transferOwnership",
      "outputs": [],
      "stateMutability": "nonpayable",
      "type": "function"
    }
  ],
  "transactionHash": "0x15358de534196b113da0c439e3edec5ce1c0a9374cc478dd17e649b2dfb30523",
  "args": [
    "0x8A753747A1Fa494EC906cE90E9f37563A8AF630e",
    "<?xml version=\"1.0\" standalone=\"no\"?>\n<svg width=\"1024px\" height=\"1024px\" viewBox=\"0 0 1024 1024\" xmlns=\"http://www.w3.org/2000/svg\">\n  <path fill=\"#333\" d=\"M512 64C264.6 64 64 264.6 64 512s200.6 448 448 448 448-200.6 448-448S759.4 64 512 64zm0 820c-205.4 0-372-166.6-372-372s166.6-372 372-372 372 166.6 372 372-166.6 372-372 372z\"/>\n  <path fill=\"#E6E6E6\" d=\"M512 140c-205.4 0-372 166.6-372 372s166.6 372 372 372 372-166.6 372-372-166.6-372-372-372zM288 421a48.01 48.01 0 0 1 96 0 48.01 48.01 0 0 1-96 0zm376 272h-48.1c-4.2 0-7.8-3.2-8.1-7.4C604 636.1 562.5 597 512 597s-92.1 39.1-95.8 88.6c-.3 4.2-3.9 7.4-8.1 7.4H360a8 8 0 0 1-8-8.4c4.4-84.3 74.5-151.6 160-151.6s155.6 67.3 160 151.6a8 8 0 0 1-8 8.4zm24-224a48.01 48.01 0 0 1 0-96 48.01 48.01 0 0 1 0 96z\"/>\n  <path fill=\"#333\" d=\"M288 421a48 48 0 1 0 96 0 48 48 0 1 0-96 0zm224 112c-85.5 0-155.6 67.3-160 151.6a8 8 0 0 0 8 8.4h48.1c4.2 0 7.8-3.2 8.1-7.4 3.7-49.5 45.3-88.6 95.8-88.6s92 39.1 95.8 88.6c.3 4.2 3.9 7.4 8.1 7.4H664a8 8 0 0 0 8-8.4C667.6 600.3 597.5 533 512 533zm128-112a48 48 0 1 0 96 0 48 48 0 1 0-96 0z\"/>\n</svg>\n",
    "<svg viewBox=\"0 0 200 200\" width=\"400\"  height=\"400\" xmlns=\"http://www.w3.org/2000/svg\">\n  <circle cx=\"100\" cy=\"100\" fill=\"yellow\" r=\"78\" stroke=\"black\" stroke-width=\"3\"/>\n  <g class=\"eyes\">\n    <circle cx=\"61\" cy=\"82\" r=\"12\"/>\n    <circle cx=\"127\" cy=\"82\" r=\"12\"/>\n  </g>\n  <path d=\"m136.81 116.53c.69 26.17-64.11 42-81.52-.73\" style=\"fill:none; stroke: black; stroke-width: 3;\"/>\n</svg>",
    "2000000000000000000000"
  ],
  "numDeployments": 1,
  "solcInputHash": "843d719020416862ba1893640298bcb1",
  "bytecode": "0x60c06040523480156200001157600080fd5b5060405162003fea38038062003fea833981810160405281019062000037919062000602565b6040518060400160405280600f81526020017f44796e616d696320535647204e465400000000000000000000000000000000008152506040518060400160405280600381526020017f44534e00000000000000000000000000000000000000000000000000000000008152508160009080519060200190620000bb929190620004a6565b508060019080519060200190620000d4929190620004a6565b505050620000f7620000eb6200019a60201b60201c565b620001a260201b60201c565b600060078190555062000110836200026860201b60201c565b6008908051906020019062000127929190620004a6565b5062000139826200026860201b60201c565b6009908051906020019062000150929190620004a6565b508373ffffffffffffffffffffffffffffffffffffffff1660a08173ffffffffffffffffffffffffffffffffffffffff1660601b8152505080608081815250505050505062000a94565b600033905090565b6000600660009054906101000a900473ffffffffffffffffffffffffffffffffffffffff16905081600660006101000a81548173ffffffffffffffffffffffffffffffffffffffff021916908373ffffffffffffffffffffffffffffffffffffffff1602179055508173ffffffffffffffffffffffffffffffffffffffff168173ffffffffffffffffffffffffffffffffffffffff167f8be0079c531659141344cd1fd0a4f28419497f9722a3daafe3b4186f6b6457e060405160405180910390a35050565b606060006040518060400160405280601a81526020017f646174613a696d6167652f7376672b786d6c3b6261736536342c00000000000081525090506000620002dd84604051602001620002bd9190620006e9565b6040516020818303038152906040526200030c60201b620011181760201c565b90508181604051602001620002f492919062000702565b60405160208183030381529060405292505050919050565b60606000825114156200033157604051806020016040528060008152509050620004a1565b600060405180606001604052806040815260200162003faa60409139905060006003600285516200036391906200079f565b6200036f9190620007fc565b60046200037d919062000834565b905060006020826200039091906200079f565b67ffffffffffffffff811115620003ac57620003ab62000a0c565b5b6040519080825280601f01601f191660200182016040528015620003df5781602001600182028036833780820191505090505b509050818152600183018586518101602084015b818310156200045c576003830192508251603f8160121c1685015160f81b8252600182019150603f81600c1c1685015160f81b8252600182019150603f8160061c1685015160f81b8252600182019150603f811685015160f81b825260018201915050620003f3565b6003895106600181146200047957600281146200048a5762000495565b613d3d60f01b600283035262000495565b603d60f81b60018303525b50505050508093505050505b919050565b828054620004b49062000913565b90600052602060002090601f016020900481019282620004d8576000855562000524565b82601f10620004f357805160ff191683800117855562000524565b8280016001018555821562000524579182015b828111156200052357825182559160200191906001019062000506565b5b50905062000533919062000537565b5090565b5b808211156200055257600081600090555060010162000538565b5090565b60006200056d620005678462000753565b6200072a565b9050828152602081018484840111156200058c576200058b62000a40565b5b62000599848285620008dd565b509392505050565b600081519050620005b28162000a60565b92915050565b600081519050620005c98162000a7a565b92915050565b600082601f830112620005e757620005e662000a3b565b5b8151620005f984826020860162000556565b91505092915050565b600080600080608085870312156200061f576200061e62000a4a565b5b60006200062f87828801620005a1565b945050602085015167ffffffffffffffff81111562000653576200065262000a45565b5b6200066187828801620005cf565b935050604085015167ffffffffffffffff81111562000685576200068462000a45565b5b6200069387828801620005cf565b9250506060620006a687828801620005b8565b91505092959194509250565b6000620006bf8262000789565b620006cb818562000794565b9350620006dd818560208601620008dd565b80840191505092915050565b6000620006f78284620006b2565b915081905092915050565b6000620007108285620006b2565b91506200071e8284620006b2565b91508190509392505050565b60006200073662000749565b905062000744828262000949565b919050565b6000604051905090565b600067ffffffffffffffff82111562000771576200077062000a0c565b5b6200077c8262000a4f565b9050602081019050919050565b600081519050919050565b600081905092915050565b6000620007ac82620008d3565b9150620007b983620008d3565b9250827fffffffffffffffffffffffffffffffffffffffffffffffffffffffffffffffff03821115620007f157620007f06200097f565b5b828201905092915050565b60006200080982620008d3565b91506200081683620008d3565b925082620008295762000828620009ae565b5b828204905092915050565b60006200084182620008d3565b91506200084e83620008d3565b9250817fffffffffffffffffffffffffffffffffffffffffffffffffffffffffffffffff04831182151516156200088a57620008896200097f565b5b828202905092915050565b6000620008a282620008b3565b9050919050565b6000819050919050565b600073ffffffffffffffffffffffffffffffffffffffff82169050919050565b6000819050919050565b60005b83811015620008fd578082015181840152602081019050620008e0565b838111156200090d576000848401525b50505050565b600060028204905060018216806200092c57607f821691505b60208210811415620009435762000942620009dd565b5b50919050565b620009548262000a4f565b810181811067ffffffffffffffff8211171562000976576200097562000a0c565b5b80604052505050565b7f4e487b7100000000000000000000000000000000000000000000000000000000600052601160045260246000fd5b7f4e487b7100000000000000000000000000000000000000000000000000000000600052601260045260246000fd5b7f4e487b7100000000000000000000000000000000000000000000000000000000600052602260045260246000fd5b7f4e487b7100000000000000000000000000000000000000000000000000000000600052604160045260246000fd5b600080fd5b600080fd5b600080fd5b600080fd5b6000601f19601f8301169050919050565b62000a6b8162000895565b811462000a7757600080fd5b50565b62000a8581620008a9565b811462000a9157600080fd5b50565b60805160a05160601c6134df62000acb60003960008181610b190152610cb6015260008181610acb0152610de901526134df6000f3fe608060405234801561001057600080fd5b50600436106101425760003560e01c80637e5bc3de116100b8578063b88d4fde1161007c578063b88d4fde14610365578063c2229fea14610381578063c87b56dd1461038b578063e2c6d0e1146103bb578063e985e9c5146103d9578063f2fde38b1461040957610142565b80637e5bc3de146102d15780638da5cb5b146102ef578063957b89561461030d57806395d89b411461032b578063a22cb4651461034957610142565b806323b872dd1161010a57806323b872dd146101ff57806330d871c61461021b57806342842e0e1461024b5780636352211e1461026757806370a0823114610297578063715018a6146102c757610142565b806301ffc9a71461014757806306fdde0314610177578063081812fc14610195578063095ea7b3146101c55780631c05364a146101e1575b600080fd5b610161600480360381019061015c91906121a7565b610425565b60405161016e919061278e565b60405180910390f35b61017f610507565b60405161018c91906127df565b60405180910390f35b6101af60048036038101906101aa919061224a565b610599565b6040516101bc9190612727565b60405180910390f35b6101df60048036038101906101da9190612167565b61061e565b005b6101e9610736565b6040516101f691906127df565b60405180910390f35b61021960048036038101906102149190612051565b6107c4565b005b61023560048036038101906102309190612201565b610824565b60405161024291906127df565b60405180910390f35b61026560048036038101906102609190612051565b6108b7565b005b610281600480360381019061027c919061224a565b6108d7565b60405161028e9190612727565b60405180910390f35b6102b160048036038101906102ac9190611fe4565b610989565b6040516102be9190612a01565b60405180910390f35b6102cf610a41565b005b6102d9610ac9565b6040516102e691906127c4565b60405180910390f35b6102f7610aed565b6040516103049190612727565b60405180910390f35b610315610b17565b60405161032291906127a9565b60405180910390f35b610333610b3b565b60405161034091906127df565b60405180910390f35b610363600480360381019061035e9190612127565b610bcd565b005b61037f600480360381019061037a91906120a4565b610be3565b005b610389610c45565b005b6103a560048036038101906103a0919061224a565b610c68565b6040516103b291906127df565b60405180910390f35b6103c3610efe565b6040516103d091906127df565b60405180910390f35b6103f360048036038101906103ee9190612011565b610f8c565b604051610400919061278e565b60405180910390f35b610423600480360381019061041e9190611fe4565b611020565b005b60007f80ac58cd000000000000000000000000000000000000000000000000000000007bffffffffffffffffffffffffffffffffffffffffffffffffffffffff1916827bffffffffffffffffffffffffffffffffffffffffffffffffffffffff191614806104f057507f5b5e139f000000000000000000000000000000000000000000000000000000007bffffffffffffffffffffffffffffffffffffffffffffffffffffffff1916827bffffffffffffffffffffffffffffffffffffffffffffffffffffffff1916145b8061050057506104ff8261129d565b5b9050919050565b60606000805461051690612d07565b80601f016020809104026020016040519081016040528092919081815260200182805461054290612d07565b801561058f5780601f106105645761010080835404028352916020019161058f565b820191906000526020600020905b81548152906001019060200180831161057257829003601f168201915b5050505050905090565b60006105a482611307565b6105e3576040517f08c379a00000000000000000000000000000000000000000000000000000000081526004016105da90612961565b60405180910390fd5b6004600083815260200190815260200160002060009054906101000a900473ffffffffffffffffffffffffffffffffffffffff169050919050565b6000610629826108d7565b90508073ffffffffffffffffffffffffffffffffffffffff168373ffffffffffffffffffffffffffffffffffffffff16141561069a576040517f08c379a0000000000000000000000000000000000000000000000000000000008152600401610691906129c1565b60405180910390fd5b8073ffffffffffffffffffffffffffffffffffffffff166106b9611373565b73ffffffffffffffffffffffffffffffffffffffff1614806106e857506106e7816106e2611373565b610f8c565b5b610727576040517f08c379a000000000000000000000000000000000000000000000000000000000815260040161071e906128e1565b60405180910390fd5b610731838361137b565b505050565b6009805461074390612d07565b80601f016020809104026020016040519081016040528092919081815260200182805461076f90612d07565b80156107bc5780601f10610791576101008083540402835291602001916107bc565b820191906000526020600020905b81548152906001019060200180831161079f57829003601f168201915b505050505081565b6107d56107cf611373565b82611434565b610814576040517f08c379a000000000000000000000000000000000000000000000000000000000815260040161080b906129e1565b60405180910390fd5b61081f838383611512565b505050565b606060006040518060400160405280601a81526020017f646174613a696d6167652f7376672b786d6c3b6261736536342c0000000000008152509050600061088a84604051602001610876919061269c565b604051602081830303815290604052611118565b9050818160405160200161089f9291906126b3565b60405160208183030381529060405292505050919050565b6108d283838360405180602001604052806000815250610be3565b505050565b6000806002600084815260200190815260200160002060009054906101000a900473ffffffffffffffffffffffffffffffffffffffff169050600073ffffffffffffffffffffffffffffffffffffffff168173ffffffffffffffffffffffffffffffffffffffff161415610980576040517f08c379a000000000000000000000000000000000000000000000000000000000815260040161097790612921565b60405180910390fd5b80915050919050565b60008073ffffffffffffffffffffffffffffffffffffffff168273ffffffffffffffffffffffffffffffffffffffff1614156109fa576040517f08c379a00000000000000000000000000000000000000000000000000000000081526004016109f190612901565b60405180910390fd5b600360008373ffffffffffffffffffffffffffffffffffffffff1673ffffffffffffffffffffffffffffffffffffffff168152602001908152602001600020549050919050565b610a49611373565b73ffffffffffffffffffffffffffffffffffffffff16610a67610aed565b73ffffffffffffffffffffffffffffffffffffffff1614610abd576040517f08c379a0000000000000000000000000000000000000000000000000000000008152600401610ab490612981565b60405180910390fd5b610ac76000611779565b565b7f000000000000000000000000000000000000000000000000000000000000000081565b6000600660009054906101000a900473ffffffffffffffffffffffffffffffffffffffff16905090565b7f000000000000000000000000000000000000000000000000000000000000000081565b606060018054610b4a90612d07565b80601f0160208091040260200160405190810160405280929190818152602001828054610b7690612d07565b8015610bc35780601f10610b9857610100808354040283529160200191610bc3565b820191906000526020600020905b815481529060010190602001808311610ba657829003601f168201915b5050505050905090565b610bdf610bd8611373565b838361183f565b5050565b610bf4610bee611373565b83611434565b610c33576040517f08c379a0000000000000000000000000000000000000000000000000000000008152600401610c2a906129e1565b60405180910390fd5b610c3f848484846119ac565b50505050565b610c5133600754611a08565b6001600754610c609190612ae6565b600781905550565b6060610c7382611307565b610cb2576040517f08c379a0000000000000000000000000000000000000000000000000000000008152600401610ca9906129a1565b60405180910390fd5b60007f000000000000000000000000000000000000000000000000000000000000000073ffffffffffffffffffffffffffffffffffffffff1663feaf968c6040518163ffffffff1660e01b815260040160a06040518083038186803b158015610d1a57600080fd5b505afa158015610d2e573d6000803e3d6000fd5b505050506040513d601f19601f82011682018060405250810190610d529190612277565b505050915050600060088054610d6790612d07565b80601f0160208091040260200160405190810160405280929190818152602001828054610d9390612d07565b8015610de05780601f10610db557610100808354040283529160200191610de0565b820191906000526020600020905b815481529060010190602001808311610dc357829003601f168201915b505050505090507f00000000000000000000000000000000000000000000000000000000000000008212610e9c5760098054610e1b90612d07565b80601f0160208091040260200160405190810160405280929190818152602001828054610e4790612d07565b8015610e945780601f10610e6957610100808354040283529160200191610e94565b820191906000526020600020905b815481529060010190602001808311610e7757829003601f168201915b505050505090505b610ea4611a26565b610ed5610eaf610507565b83604051602001610ec19291906126d7565b604051602081830303815290604052611118565b604051602001610ee69291906126b3565b60405160208183030381529060405292505050919050565b60088054610f0b90612d07565b80601f0160208091040260200160405190810160405280929190818152602001828054610f3790612d07565b8015610f845780601f10610f5957610100808354040283529160200191610f84565b820191906000526020600020905b815481529060010190602001808311610f6757829003601f168201915b505050505081565b6000600560008473ffffffffffffffffffffffffffffffffffffffff1673ffffffffffffffffffffffffffffffffffffffff16815260200190815260200160002060008373ffffffffffffffffffffffffffffffffffffffff1673ffffffffffffffffffffffffffffffffffffffff16815260200190815260200160002060009054906101000a900460ff16905092915050565b611028611373565b73ffffffffffffffffffffffffffffffffffffffff16611046610aed565b73ffffffffffffffffffffffffffffffffffffffff161461109c576040517f08c379a000000000000000000000000000000000000000000000000000000000815260040161109390612981565b60405180910390fd5b600073ffffffffffffffffffffffffffffffffffffffff168173ffffffffffffffffffffffffffffffffffffffff16141561110c576040517f08c379a000000000000000000000000000000000000000000000000000000000815260040161110390612821565b60405180910390fd5b61111581611779565b50565b606060008251141561113b57604051806020016040528060008152509050611298565b600060405180606001604052806040815260200161346a604091399050600060036002855161116a9190612ae6565b6111749190612b3c565b60046111809190612b6d565b905060006020826111919190612ae6565b67ffffffffffffffff8111156111aa576111a9612df7565b5b6040519080825280601f01601f1916602001820160405280156111dc5781602001600182028036833780820191505090505b509050818152600183018586518101602084015b81831015611257576003830192508251603f8160121c1685015160f81b8252600182019150603f81600c1c1685015160f81b8252600182019150603f8160061c1685015160f81b8252600182019150603f811685015160f81b8252600182019150506111f0565b60038951066001811461127157600281146112815761128c565b613d3d60f01b600283035261128c565b603d60f81b60018303525b50505050508093505050505b919050565b60007f01ffc9a7000000000000000000000000000000000000000000000000000000007bffffffffffffffffffffffffffffffffffffffffffffffffffffffff1916827bffffffffffffffffffffffffffffffffffffffffffffffffffffffff1916149050919050565b60008073ffffffffffffffffffffffffffffffffffffffff166002600084815260200190815260200160002060009054906101000a900473ffffffffffffffffffffffffffffffffffffffff1673ffffffffffffffffffffffffffffffffffffffff1614159050919050565b600033905090565b816004600083815260200190815260200160002060006101000a81548173ffffffffffffffffffffffffffffffffffffffff021916908373ffffffffffffffffffffffffffffffffffffffff160217905550808273ffffffffffffffffffffffffffffffffffffffff166113ee836108d7565b73ffffffffffffffffffffffffffffffffffffffff167f8c5be1e5ebec7d5bd14f71427d1e84f3dd0314c0f7b2291e5b200ac8c7c3b92560405160405180910390a45050565b600061143f82611307565b61147e576040517f08c379a0000000000000000000000000000000000000000000000000000000008152600401611475906128c1565b60405180910390fd5b6000611489836108d7565b90508073ffffffffffffffffffffffffffffffffffffffff168473ffffffffffffffffffffffffffffffffffffffff1614806114cb57506114ca8185610f8c565b5b8061150957508373ffffffffffffffffffffffffffffffffffffffff166114f184610599565b73ffffffffffffffffffffffffffffffffffffffff16145b91505092915050565b8273ffffffffffffffffffffffffffffffffffffffff16611532826108d7565b73ffffffffffffffffffffffffffffffffffffffff1614611588576040517f08c379a000000000000000000000000000000000000000000000000000000000815260040161157f90612841565b60405180910390fd5b600073ffffffffffffffffffffffffffffffffffffffff168273ffffffffffffffffffffffffffffffffffffffff1614156115f8576040517f08c379a00000000000000000000000000000000000000000000000000000000081526004016115ef90612881565b60405180910390fd5b611603838383611a63565b61160e60008261137b565b6001600360008573ffffffffffffffffffffffffffffffffffffffff1673ffffffffffffffffffffffffffffffffffffffff168152602001908152602001600020600082825461165e9190612bc7565b925050819055506001600360008473ffffffffffffffffffffffffffffffffffffffff1673ffffffffffffffffffffffffffffffffffffffff16815260200190815260200160002060008282546116b59190612ae6565b92505081905550816002600083815260200190815260200160002060006101000a81548173ffffffffffffffffffffffffffffffffffffffff021916908373ffffffffffffffffffffffffffffffffffffffff160217905550808273ffffffffffffffffffffffffffffffffffffffff168473ffffffffffffffffffffffffffffffffffffffff167fddf252ad1be2c89b69c2b068fc378daa952ba7f163c4a11628f55a4df523b3ef60405160405180910390a4611774838383611a68565b505050565b6000600660009054906101000a900473ffffffffffffffffffffffffffffffffffffffff16905081600660006101000a81548173ffffffffffffffffffffffffffffffffffffffff021916908373ffffffffffffffffffffffffffffffffffffffff1602179055508173ffffffffffffffffffffffffffffffffffffffff168173ffffffffffffffffffffffffffffffffffffffff167f8be0079c531659141344cd1fd0a4f28419497f9722a3daafe3b4186f6b6457e060405160405180910390a35050565b8173ffffffffffffffffffffffffffffffffffffffff168373ffffffffffffffffffffffffffffffffffffffff1614156118ae576040517f08c379a00000000000000000000000000000000000000000000000000000000081526004016118a5906128a1565b60405180910390fd5b80600560008573ffffffffffffffffffffffffffffffffffffffff1673ffffffffffffffffffffffffffffffffffffffff16815260200190815260200160002060008473ffffffffffffffffffffffffffffffffffffffff1673ffffffffffffffffffffffffffffffffffffffff16815260200190815260200160002060006101000a81548160ff0219169083151502179055508173ffffffffffffffffffffffffffffffffffffffff168373ffffffffffffffffffffffffffffffffffffffff167f17307eab39ab6107e8899845ad3d59bd9653f200f220920489ca2b5937696c318360405161199f919061278e565b60405180910390a3505050565b6119b7848484611512565b6119c384848484611a6d565b611a02576040517f08c379a00000000000000000000000000000000000000000000000000000000081526004016119f990612801565b60405180910390fd5b50505050565b611a22828260405180602001604052806000815250611c04565b5050565b60606040518060400160405280601d81526020017f646174613a6170706c69636174696f6e2f6a736f6e3b6261736536342c000000815250905090565b505050565b505050565b6000611a8e8473ffffffffffffffffffffffffffffffffffffffff16611c5f565b15611bf7578373ffffffffffffffffffffffffffffffffffffffff1663150b7a02611ab7611373565b8786866040518563ffffffff1660e01b8152600401611ad99493929190612742565b602060405180830381600087803b158015611af357600080fd5b505af1925050508015611b2457506040513d601f19601f82011682018060405250810190611b2191906121d4565b60015b611ba7573d8060008114611b54576040519150601f19603f3d011682016040523d82523d6000602084013e611b59565b606091505b50600081511415611b9f576040517f08c379a0000000000000000000000000000000000000000000000000000000008152600401611b9690612801565b60405180910390fd5b805181602001fd5b63150b7a0260e01b7bffffffffffffffffffffffffffffffffffffffffffffffffffffffff1916817bffffffffffffffffffffffffffffffffffffffffffffffffffffffff191614915050611bfc565b600190505b949350505050565b611c0e8383611c82565b611c1b6000848484611a6d565b611c5a576040517f08c379a0000000000000000000000000000000000000000000000000000000008152600401611c5190612801565b60405180910390fd5b505050565b6000808273ffffffffffffffffffffffffffffffffffffffff163b119050919050565b600073ffffffffffffffffffffffffffffffffffffffff168273ffffffffffffffffffffffffffffffffffffffff161415611cf2576040517f08c379a0000000000000000000000000000000000000000000000000000000008152600401611ce990612941565b60405180910390fd5b611cfb81611307565b15611d3b576040517f08c379a0000000000000000000000000000000000000000000000000000000008152600401611d3290612861565b60405180910390fd5b611d4760008383611a63565b6001600360008473ffffffffffffffffffffffffffffffffffffffff1673ffffffffffffffffffffffffffffffffffffffff1681526020019081526020016000206000828254611d979190612ae6565b92505081905550816002600083815260200190815260200160002060006101000a81548173ffffffffffffffffffffffffffffffffffffffff021916908373ffffffffffffffffffffffffffffffffffffffff160217905550808273ffffffffffffffffffffffffffffffffffffffff16600073ffffffffffffffffffffffffffffffffffffffff167fddf252ad1be2c89b69c2b068fc378daa952ba7f163c4a11628f55a4df523b3ef60405160405180910390a4611e5860008383611a68565b5050565b6000611e6f611e6a84612a41565b612a1c565b905082815260208101848484011115611e8b57611e8a612e2b565b5b611e96848285612cc5565b509392505050565b6000611eb1611eac84612a72565b612a1c565b905082815260208101848484011115611ecd57611ecc612e2b565b5b611ed8848285612cc5565b509392505050565b600081359050611eef816133df565b92915050565b600081359050611f04816133f6565b92915050565b600081359050611f198161340d565b92915050565b600081519050611f2e8161340d565b92915050565b600082601f830112611f4957611f48612e26565b5b8135611f59848260208601611e5c565b91505092915050565b600081519050611f7181613424565b92915050565b600082601f830112611f8c57611f8b612e26565b5b8135611f9c848260208601611e9e565b91505092915050565b600081359050611fb48161343b565b92915050565b600081519050611fc98161343b565b92915050565b600081519050611fde81613452565b92915050565b600060208284031215611ffa57611ff9612e35565b5b600061200884828501611ee0565b91505092915050565b6000806040838503121561202857612027612e35565b5b600061203685828601611ee0565b925050602061204785828601611ee0565b9150509250929050565b60008060006060848603121561206a57612069612e35565b5b600061207886828701611ee0565b935050602061208986828701611ee0565b925050604061209a86828701611fa5565b9150509250925092565b600080600080608085870312156120be576120bd612e35565b5b60006120cc87828801611ee0565b94505060206120dd87828801611ee0565b93505060406120ee87828801611fa5565b925050606085013567ffffffffffffffff81111561210f5761210e612e30565b5b61211b87828801611f34565b91505092959194509250565b6000806040838503121561213e5761213d612e35565b5b600061214c85828601611ee0565b925050602061215d85828601611ef5565b9150509250929050565b6000806040838503121561217e5761217d612e35565b5b600061218c85828601611ee0565b925050602061219d85828601611fa5565b9150509250929050565b6000602082840312156121bd576121bc612e35565b5b60006121cb84828501611f0a565b91505092915050565b6000602082840312156121ea576121e9612e35565b5b60006121f884828501611f1f565b91505092915050565b60006020828403121561221757612216612e35565b5b600082013567ffffffffffffffff81111561223557612234612e30565b5b61224184828501611f77565b91505092915050565b6000602082840312156122605761225f612e35565b5b600061226e84828501611fa5565b91505092915050565b600080600080600060a0868803121561229357612292612e35565b5b60006122a188828901611fcf565b95505060206122b288828901611f62565b94505060406122c388828901611fba565b93505060606122d488828901611fba565b92505060806122e588828901611fcf565b9150509295509295909350565b6122fb81612bfb565b82525050565b61230a81612c0d565b82525050565b600061231b82612aa3565b6123258185612ab9565b9350612335818560208601612cd4565b61233e81612e3a565b840191505092915050565b61235281612c8f565b82525050565b61236181612c45565b82525050565b600061237282612aae565b61237c8185612aca565b935061238c818560208601612cd4565b61239581612e3a565b840191505092915050565b60006123ab82612aae565b6123b58185612adb565b93506123c5818560208601612cd4565b80840191505092915050565b60006123de600983612adb565b91506123e982612e4b565b600982019050919050565b6000612401603283612aca565b915061240c82612e74565b604082019050919050565b6000612424602683612aca565b915061242f82612ec3565b604082019050919050565b6000612447602583612aca565b915061245282612f12565b604082019050919050565b600061246a601c83612aca565b915061247582612f61565b602082019050919050565b600061248d602483612aca565b915061249882612f8a565b604082019050919050565b60006124b0601983612aca565b91506124bb82612fd9565b602082019050919050565b60006124d3602c83612aca565b91506124de82613002565b604082019050919050565b60006124f6603883612aca565b915061250182613051565b604082019050919050565b6000612519602a83612aca565b9150612524826130a0565b604082019050919050565b600061253c602983612aca565b9150612547826130ef565b604082019050919050565b600061255f604483612adb565b915061256a8261313e565b604482019050919050565b6000612582600283612adb565b915061258d826131b3565b600282019050919050565b60006125a5602083612aca565b91506125b0826131dc565b602082019050919050565b60006125c8602c83612aca565b91506125d382613205565b604082019050919050565b60006125eb602083612aca565b91506125f682613254565b602082019050919050565b600061260e602f83612aca565b91506126198261327d565b604082019050919050565b6000612631602183612aca565b915061263c826132cc565b604082019050919050565b6000612654603183612aca565b915061265f8261331b565b604082019050919050565b6000612677604383612adb565b91506126828261336a565b604382019050919050565b61269681612c6f565b82525050565b60006126a882846123a0565b915081905092915050565b60006126bf82856123a0565b91506126cb82846123a0565b91508190509392505050565b60006126e2826123d1565b91506126ee82856123a0565b91506126f982612552565b91506127048261266a565b915061271082846123a0565b915061271b82612575565b91508190509392505050565b600060208201905061273c60008301846122f2565b92915050565b600060808201905061275760008301876122f2565b61276460208301866122f2565b612771604083018561268d565b81810360608301526127838184612310565b905095945050505050565b60006020820190506127a36000830184612301565b92915050565b60006020820190506127be6000830184612349565b92915050565b60006020820190506127d96000830184612358565b92915050565b600060208201905081810360008301526127f98184612367565b905092915050565b6000602082019050818103600083015261281a816123f4565b9050919050565b6000602082019050818103600083015261283a81612417565b9050919050565b6000602082019050818103600083015261285a8161243a565b9050919050565b6000602082019050818103600083015261287a8161245d565b9050919050565b6000602082019050818103600083015261289a81612480565b9050919050565b600060208201905081810360008301526128ba816124a3565b9050919050565b600060208201905081810360008301526128da816124c6565b9050919050565b600060208201905081810360008301526128fa816124e9565b9050919050565b6000602082019050818103600083015261291a8161250c565b9050919050565b6000602082019050818103600083015261293a8161252f565b9050919050565b6000602082019050818103600083015261295a81612598565b9050919050565b6000602082019050818103600083015261297a816125bb565b9050919050565b6000602082019050818103600083015261299a816125de565b9050919050565b600060208201905081810360008301526129ba81612601565b9050919050565b600060208201905081810360008301526129da81612624565b9050919050565b600060208201905081810360008301526129fa81612647565b9050919050565b6000602082019050612a16600083018461268d565b92915050565b6000612a26612a37565b9050612a328282612d39565b919050565b6000604051905090565b600067ffffffffffffffff821115612a5c57612a5b612df7565b5b612a6582612e3a565b9050602081019050919050565b600067ffffffffffffffff821115612a8d57612a8c612df7565b5b612a9682612e3a565b9050602081019050919050565b600081519050919050565b600081519050919050565b600082825260208201905092915050565b600082825260208201905092915050565b600081905092915050565b6000612af182612c6f565b9150612afc83612c6f565b9250827fffffffffffffffffffffffffffffffffffffffffffffffffffffffffffffffff03821115612b3157612b30612d6a565b5b828201905092915050565b6000612b4782612c6f565b9150612b5283612c6f565b925082612b6257612b61612d99565b5b828204905092915050565b6000612b7882612c6f565b9150612b8383612c6f565b9250817fffffffffffffffffffffffffffffffffffffffffffffffffffffffffffffffff0483118215151615612bbc57612bbb612d6a565b5b828202905092915050565b6000612bd282612c6f565b9150612bdd83612c6f565b925082821015612bf057612bef612d6a565b5b828203905092915050565b6000612c0682612c4f565b9050919050565b60008115159050919050565b60007fffffffff0000000000000000000000000000000000000000000000000000000082169050919050565b6000819050919050565b600073ffffffffffffffffffffffffffffffffffffffff82169050919050565b6000819050919050565b600069ffffffffffffffffffff82169050919050565b6000612c9a82612ca1565b9050919050565b6000612cac82612cb3565b9050919050565b6000612cbe82612c4f565b9050919050565b82818337600083830152505050565b60005b83811015612cf2578082015181840152602081019050612cd7565b83811115612d01576000848401525b50505050565b60006002820490506001821680612d1f57607f821691505b60208210811415612d3357612d32612dc8565b5b50919050565b612d4282612e3a565b810181811067ffffffffffffffff82111715612d6157612d60612df7565b5b80604052505050565b7f4e487b7100000000000000000000000000000000000000000000000000000000600052601160045260246000fd5b7f4e487b7100000000000000000000000000000000000000000000000000000000600052601260045260246000fd5b7f4e487b7100000000000000000000000000000000000000000000000000000000600052602260045260246000fd5b7f4e487b7100000000000000000000000000000000000000000000000000000000600052604160045260246000fd5b600080fd5b600080fd5b600080fd5b600080fd5b6000601f19601f8301169050919050565b7f7b226e616d65223a220000000000000000000000000000000000000000000000600082015250565b7f4552433732313a207472616e7366657220746f206e6f6e20455243373231526560008201527f63656976657220696d706c656d656e7465720000000000000000000000000000602082015250565b7f4f776e61626c653a206e6577206f776e657220697320746865207a65726f206160008201527f6464726573730000000000000000000000000000000000000000000000000000602082015250565b7f4552433732313a207472616e736665722066726f6d20696e636f72726563742060008201527f6f776e6572000000000000000000000000000000000000000000000000000000602082015250565b7f4552433732313a20746f6b656e20616c7265616479206d696e74656400000000600082015250565b7f4552433732313a207472616e7366657220746f20746865207a65726f2061646460008201527f7265737300000000000000000000000000000000000000000000000000000000602082015250565b7f4552433732313a20617070726f766520746f2063616c6c657200000000000000600082015250565b7f4552433732313a206f70657261746f7220717565727920666f72206e6f6e657860008201527f697374656e7420746f6b656e0000000000000000000000000000000000000000602082015250565b7f4552433732313a20617070726f76652063616c6c6572206973206e6f74206f7760008201527f6e6572206e6f7220617070726f76656420666f7220616c6c0000000000000000602082015250565b7f4552433732313a2062616c616e636520717565727920666f7220746865207a6560008201527f726f206164647265737300000000000000000000000000000000000000000000602082015250565b7f4552433732313a206f776e657220717565727920666f72206e6f6e657869737460008201527f656e7420746f6b656e0000000000000000000000000000000000000000000000602082015250565b7f222c20226465736372697074696f6e223a22416e204e4654207468617420636860008201527f616e676573206261736564206f6e2074686520436861696e6c696e6b2046656560208201527f64222c2000000000000000000000000000000000000000000000000000000000604082015250565b7f227d000000000000000000000000000000000000000000000000000000000000600082015250565b7f4552433732313a206d696e7420746f20746865207a65726f2061646472657373600082015250565b7f4552433732313a20617070726f76656420717565727920666f72206e6f6e657860008201527f697374656e7420746f6b656e0000000000000000000000000000000000000000602082015250565b7f4f776e61626c653a2063616c6c6572206973206e6f7420746865206f776e6572600082015250565b7f4552433732314d657461646174613a2055524920717565727920666f72206e6f60008201527f6e6578697374656e7420746f6b656e0000000000000000000000000000000000602082015250565b7f4552433732313a20617070726f76616c20746f2063757272656e74206f776e6560008201527f7200000000000000000000000000000000000000000000000000000000000000602082015250565b7f4552433732313a207472616e736665722063616c6c6572206973206e6f74206f60008201527f776e6572206e6f7220617070726f766564000000000000000000000000000000602082015250565b7f2261747472696275746573223a205b7b2274726169745f74797065223a20226360008201527f6f6f6c6e657373222c202276616c7565223a203130307d5d2c2022696d61676560208201527f223a220000000000000000000000000000000000000000000000000000000000604082015250565b6133e881612bfb565b81146133f357600080fd5b50565b6133ff81612c0d565b811461340a57600080fd5b50565b61341681612c19565b811461342157600080fd5b50565b61342d81612c45565b811461343857600080fd5b50565b61344481612c6f565b811461344f57600080fd5b50565b61345b81612c79565b811461346657600080fd5b5056fe4142434445464748494a4b4c4d4e4f505152535455565758595a6162636465666768696a6b6c6d6e6f707172737475767778797a303132333435363738392b2fa264697066735822122070844e9d235a2d252db42f8f325532d426d224fad43c33abd580ddf47e87f32264736f6c634300080700334142434445464748494a4b4c4d4e4f505152535455565758595a6162636465666768696a6b6c6d6e6f707172737475767778797a303132333435363738392b2f",
  "devdoc": {
    "kind": "dev",
    "methods": {
      "approve(address,uint256)": {
        "details": "See {IERC721-approve}."
      },
      "balanceOf(address)": {
        "details": "See {IERC721-balanceOf}."
      },
      "getApproved(uint256)": {
        "details": "See {IERC721-getApproved}."
      },
      "isApprovedForAll(address,address)": {
        "details": "See {IERC721-isApprovedForAll}."
      },
      "name()": {
        "details": "See {IERC721Metadata-name}."
      },
      "owner()": {
        "details": "Returns the address of the current owner."
      },
      "ownerOf(uint256)": {
        "details": "See {IERC721-ownerOf}."
      },
      "renounceOwnership()": {
        "details": "Leaves the contract without owner. It will not be possible to call `onlyOwner` functions anymore. Can only be called by the current owner. NOTE: Renouncing ownership will leave the contract without an owner, thereby removing any functionality that is only available to the owner."
      },
      "safeTransferFrom(address,address,uint256)": {
        "details": "See {IERC721-safeTransferFrom}."
      },
      "safeTransferFrom(address,address,uint256,bytes)": {
        "details": "See {IERC721-safeTransferFrom}."
      },
      "setApprovalForAll(address,bool)": {
        "details": "See {IERC721-setApprovalForAll}."
      },
      "supportsInterface(bytes4)": {
        "details": "See {IERC165-supportsInterface}."
      },
      "symbol()": {
        "details": "See {IERC721Metadata-symbol}."
      },
      "tokenURI(uint256)": {
        "details": "See {IERC721Metadata-tokenURI}."
      },
      "transferFrom(address,address,uint256)": {
        "details": "See {IERC721-transferFrom}."
      },
      "transferOwnership(address)": {
        "details": "Transfers ownership of the contract to a new account (`newOwner`). Can only be called by the current owner."
      }
    },
    "version": 1
  },
  "userdoc": {
    "kind": "user",
    "methods": {},
    "version": 1
  },
  "storageLayout": {
    "storage": [
      {
        "astId": 176,
        "contract": "contracts/DynamicSvgNft.sol:DynamicSvgNft",
        "label": "_name",
        "offset": 0,
        "slot": "0",
        "type": "t_string_storage"
      },
      {
        "astId": 178,
        "contract": "contracts/DynamicSvgNft.sol:DynamicSvgNft",
        "label": "_symbol",
        "offset": 0,
        "slot": "1",
        "type": "t_string_storage"
      },
      {
        "astId": 182,
        "contract": "contracts/DynamicSvgNft.sol:DynamicSvgNft",
        "label": "_owners",
        "offset": 0,
        "slot": "2",
        "type": "t_mapping(t_uint256,t_address)"
      },
      {
        "astId": 186,
        "contract": "contracts/DynamicSvgNft.sol:DynamicSvgNft",
        "label": "_balances",
        "offset": 0,
        "slot": "3",
        "type": "t_mapping(t_address,t_uint256)"
      },
      {
        "astId": 190,
        "contract": "contracts/DynamicSvgNft.sol:DynamicSvgNft",
        "label": "_tokenApprovals",
        "offset": 0,
        "slot": "4",
        "type": "t_mapping(t_uint256,t_address)"
      },
      {
        "astId": 196,
        "contract": "contracts/DynamicSvgNft.sol:DynamicSvgNft",
        "label": "_operatorApprovals",
        "offset": 0,
        "slot": "5",
        "type": "t_mapping(t_address,t_mapping(t_address,t_bool))"
      },
      {
        "astId": 53,
        "contract": "contracts/DynamicSvgNft.sol:DynamicSvgNft",
        "label": "_owner",
        "offset": 0,
        "slot": "6",
        "type": "t_address"
      },
      {
        "astId": 1796,
        "contract": "contracts/DynamicSvgNft.sol:DynamicSvgNft",
        "label": "s_tokenCounter",
        "offset": 0,
        "slot": "7",
        "type": "t_uint256"
      },
      {
        "astId": 1798,
        "contract": "contracts/DynamicSvgNft.sol:DynamicSvgNft",
        "label": "s_lowImageURI",
        "offset": 0,
        "slot": "8",
        "type": "t_string_storage"
      },
      {
        "astId": 1800,
        "contract": "contracts/DynamicSvgNft.sol:DynamicSvgNft",
        "label": "s_highImageURI",
        "offset": 0,
        "slot": "9",
        "type": "t_string_storage"
      }
    ],
    "types": {
      "t_address": {
        "encoding": "inplace",
        "label": "address",
        "numberOfBytes": "20"
      },
      "t_bool": {
        "encoding": "inplace",
        "label": "bool",
        "numberOfBytes": "1"
      },
      "t_mapping(t_address,t_bool)": {
        "encoding": "mapping",
        "key": "t_address",
        "label": "mapping(address => bool)",
        "numberOfBytes": "32",
        "value": "t_bool"
      },
      "t_mapping(t_address,t_mapping(t_address,t_bool))": {
        "encoding": "mapping",
        "key": "t_address",
        "label": "mapping(address => mapping(address => bool))",
        "numberOfBytes": "32",
        "value": "t_mapping(t_address,t_bool)"
      },
      "t_mapping(t_address,t_uint256)": {
        "encoding": "mapping",
        "key": "t_address",
        "label": "mapping(address => uint256)",
        "numberOfBytes": "32",
        "value": "t_uint256"
      },
      "t_mapping(t_uint256,t_address)": {
        "encoding": "mapping",
        "key": "t_uint256",
        "label": "mapping(uint256 => address)",
        "numberOfBytes": "32",
        "value": "t_address"
      },
      "t_string_storage": {
        "encoding": "bytes",
        "label": "string",
        "numberOfBytes": "32"
      },
      "t_uint256": {
        "encoding": "inplace",
        "label": "uint256",
        "numberOfBytes": "32"
      }
    }
  }
}